:020000040800F2
:10000000C80B002095010008990100089B01000819
:100010009D0100089F010008A101000800000000E8
:10002000000000000000000000000000A301000824
:10003000A501000800000000A7010008A9010008B0
:10004000AB010008AB010008AB010008AB010008E0
:10005000AB010008AB010008AB010008AB010008D0
:10006000AB010008AB010008AB010008AB010008C0
:10007000AB010008AB010008AB010008AB010008B0
:10008000AB010008AB010008AB010008AB010008A0
:10009000AB010008AB010008AB010008AB01000890
:1000A000AB010008AB010008AB010008AB01000880
:1000B000AB010008AB010008AB010008AB01000870
:1000C000AB010008AB010008AB010008AB01000860
:1000D000AB010008150700086D050008AB0100081A
:1000E000AB010008AB010008AB01000800F002F80A
:1000F00000F041F80AA090E8000C82448344AAF181
:100100000107DA4501D100F036F8AFF2090EBAE87E
:100110000F0013F0010F18BFFB1A43F0010318473B
:100120006814000088140000103A24BF78C878C111
:10013000FAD8520724BF30C830C144BF04680C60ED
:10014000704700000023002400250026103A28BF35
:1001500078C1FBD8520728BF30C148BF0B60704739
:10016000642900F09185002070471FB5AFF300802F
:100170001FBD10B510BD00F03BFE1146FFF7F5FFA7
:1001800000F022F800F059FEFFF7F3FF00F0B4FA98
:1001900030BF000008480047FEE7FEE7FEE7FEE745
:1001A000FEE7FEE7FEE7FEE7FEE7FEE70348044959
:1001B000024A044B70470000ED000008C809002007
:1001C000C80B0020C8090020F0B589B0002509201F
:1001D00000F068FC482000F0BFFC4FF416514820A6
:1001E00000F0C7FA4FF46131482000F003FA00F044
:1001F0007DF900F0F1F80020704908800027DCE06C
:10020000002600F01CF90646032E0CD1781CC7B25C
:100210006B48006808B9012000E0002068490860C8
:10022000C82000F0B0FC0A2000F0ADFC012F75D111
:10023000AA208DF818008DF819008DF81A00962064
:100240008DF81B0069208DF81C0000208DF81D0022
:1002500003208DF81E0020208DF81F0001208DF84E
:10026000200022208DF82100002408E006A8005D6F
:1002700054490880012000F086FC601CC4B20A2C9E
:10028000F4DB0A2000F07FFCAA208DF818008DF81E
:1002900019008DF81A0096208DF81B0069208DF842
:1002A0001C0000208DF81D0003208DF81E0020206A
:1002B0008DF81F0002208DF8200021208DF82100EC
:1002C000002408E006A8005D3E490880012000F0F7
:1002D0005AFC601CC4B20A2CF4DB0A2000F053FC68
:1002E000AA208DF818008DF819008DF81A009620B4
:1002F0008DF81B0069208DF81C0000208DF81D0072
:1003000003208DF81E0030208DF81F0001208DF88D
:10031000200032208DF82100002409E00EE006A81C
:10032000005D28490880012000F02DFC601CC4B24B
:100330000A2CF4DB0A2000F026FC00271F48008866
:1003400010F4004F28D020484079052821D1882476
:1003500016E004EBD4714910B4EB41010ED11A48F8
:10036000005D00F00F00184908550846015D17A010
:1003700000F042FC1448005D01A90855601CC4B29D
:10038000AB2CE6DB12A000F037FC4FF47A7000F0E3
:10039000FAFB0020094908801E2095FBF0F100FBC4
:1003A000115040B90B48006808B9012000E0002056
:1003B000084908600025681C85B221E7020000207A
:1003C000888122420444004010000020256420005F
:1003D0000D0A0000A00121423D48806940F0040060
:1003E0003B4988613B48006820F00F003A49C1F85A
:1003F00000080846D0F8000840F00800C1F80008DE
:100400003448001D0068354908403349C1F80408E4
:100410003048001D0068324908432F49C1F80408DC
:100420000846D0F80C0840F40050C1F80C08084603
:10043000D0F80C0840F40040C1F80C08704710B523
:10044000022000F019FB2748007800282BD026480E
:10045000006840B124480830006820B12248343890
:10046000006801281FD10A2000F08DFB00201D49E3
:1004700008701D48006820B9012000F0FDFA012035
:1004800010BD19480830006820B9012000F0F4FAC6
:100490000220F5E7144834380068012813D100F031
:1004A000EBFA0320ECE71048006801280BD10E4856
:1004B00008300068012806D10B483438006810B9AC
:1004C000012008490870012000F0D6FA0020D7E783
:1004D000001002400008014000000140FFFF0F0F24
:1004E0000000808000000020340121421B48806908
:1004F00040F00400194988610846806940F02000F6
:1005000088611748006820F00F001649C1F80408F8
:100510000846D0F8040840F00300C1F80408084673
:10052000D0F80C0840F48070C1F80C080E48D0F8E0
:10053000000420F470600C49C1F800040846D0F8AB
:10054000000440F44070C1F800040846D0F80C04E0
:1005500040F00400C1F80C04704700000010024095
:100560000408014000000140001001400020072164
:100570005A4A128812F0200F35D0584A121D12889C
:10058000D0B2574A1288C2F30D02052A07DD554A38
:100590009279544B5B7902EB0322521D91B2514A7E
:1005A0005279052A01D140F20D114D4A1288C2F349
:1005B0000D028A420CD14A4A128842F40042484B4A
:1005C0001A80484A50541A461288521C1A800AE06F
:1005D000434A1288C2F30D02424B9854404A128893
:1005E000521C3F4B1A803E4A128842F480423C4BD8
:1005F0001A8070472DE9F05F04460D46280100F08F
:10060000EAFD8146384904FB01F000F0E4FD824632
:10061000494600F0A9FC0646304600F097FD87B237
:10062000384600F0D8FD8346314600F082FE82460F
:100630004FF0834100F0D4FD814600F087FD8046F5
:100640003F0107EB080087B22848806940F00400AA
:10065000264988610846C06940F40030C8612448D2
:10066000006820F47F402349C1F800080846D0F80C
:10067000000840F40B40C1F800081C48006940F431
:1006800000301A4908610846006920F4003008610A
:100690004FF04020A0F8087410480C30008842F257
:1006A0000C0108434FF04021A1F80C040846B0F8B3
:1006B0000C0440F48070A1F80C040846B0F80C0457
:1006C00040F0200005490C31088002232622032136
:1006D000084600F0E7F8BDE8F09F00000044004045
:1006E000020000201000002040420F0000100240D5
:1006F0000008014000000140014600BF704700BFF4
:10070000544A128812F0400FFAD0C2B2514B1B1D4E
:100710001A80704700204F49098811F0200F21D01E
:100720004C49091D0988C8B24B49097801F03F01BD
:1007300009290CD14849097841F08001464A1170D5
:100740004649487211460978491C11700AE042492D
:10075000097801F03F01414A50543F490978491C4A
:100760003D4A11703C49097841F040013A4A117004
:1007700070472DE9F05F04460D46280100F02BFD7F
:100780008146374904FB01F000F025FD82464946C9
:1007900000F0EAFB0646304600F0D8FC87B2384647
:1007A00000F019FD8346314600F0C3FD82464FF04C
:1007B000834100F015FD814600F0C8FC80463F01F2
:1007C00007EB080087B22748806940F004002549FC
:1007D00088610846806940F480408861224800684A
:1007E00020F47F602149C1F804080846D0F80408C5
:1007F00040F40B60C1F804081A48C06840F4804017
:100800001849C8600846C06820F48040C86018488D
:10081000A0F808780F480C30008842F20C01084319
:100820001349A1F80C080846B0F80C0840F4807091
:10083000A1F80C080846B0F80C0840F02000054963
:100840000C310880022325220321084600F02AF8F3
:10085000BDE8F09F0038014004000020210900207D
:1008600040420F0000100240040801400000014017
:1008700000300140AC4A0A400243AC4B1A6070475A
:10088000072323EA00021202A84B1B1D19684FF62A
:10089000FF031940A64B194311434FF0E023C3F85F
:1008A0000C1D70472DE9F04704460D4616461F46BD
:1008B0003046F11706EB91714FEAA109F11706EBEB
:1008C00091718910A6EB810101F0FF0A042101EB6F
:1008D000CA0000F0FF0A3846FFF7D2FFC7F1040054
:1008E00004FA00F80F203841284040EA080808F0D0
:1008F0000F08202E09DA8F4800680121B140084313
:100900004FF0E021C1F800010BE08A48001D0168AA
:10091000A6F120020120904001434FF0E020C0F8F2
:100920000411854850F8290008FA0AF10143824869
:1009300040F82910BDE8F08770B50D46CE1701EBE1
:100940009676B310CE1701EB9676B610A1EB86061D
:10095000B606340E794DAD6945F00105774EB561A7
:100960004FEAB63555F823600F25A540AE43744DC8
:1009700045F8236055F8235000FA04F63543704ECD
:1009800046F823506F4D2E6801258D402E436C4D47
:10099000083DC5F8006412F0010F09D0694D0C350F
:1009A0002E6801258D402E43654D083DC5F80C6429
:1009B00012F0020F09D0634D08352E6801258D40D5
:1009C0002E435F4D083DC5F8086470BD00B500209A
:1009D0005A490861C8601420486100208861C861D4
:1009E0000846006840F00100086008464068564923
:1009F00008405249486008460068544908404F4939
:100A000008600846006820F48020086008464068B6
:100A100020F4FE0048600020886000214FF0006054
:100A2000FFF728FF00BD10B540480830006840F0CF
:100A300004004FF0E021C1F8100D4048C06940F0BB
:100A400080503E49C8614248406840F48070404947
:100A500048600846006840F00400086008460068E6
:100A600040F002000860FFF793FB10BD3048001D06
:100A70002E49091D086070470146084649062F4A5D
:100A8000926942F001022D4B9A612D4A083A526850
:100A900022F0E0622A4B083B5A601A4652680A4329
:100AA0005A60704730B504460025FFF78FFF234892
:100AB000006840F480302149086000BF1F4800688A
:100AC000400CFBD04FF480601C494860A01EC4B2AB
:100AD0000846406840EA844048600846406840F460
:100AE000803048601B48006840F0320019490860B7
:100AF0001248006840F080701049086000BF0F483D
:100B00000068400EFBD00D48406840F002000B49E1
:100B1000486005E009484068C0F3870505F0030513
:100B2000022DF7D130BD000080FFFF1F08ED00E06F
:100B30000000FA0500E100E000E400E000100240DF
:100B400008000140000401400000FFF8FFFFF6FE2E
:100B500000700040002002404FF0E021096921F0C0
:100B600004014FF0E02211610146C21700EB5272FE
:100B7000D2101F4B1A70194609784FF47A725143FC
:100B80009A1C118070471A4A921C128842434FF0F7
:100B9000E0235A6100229A6101221A6100BF4FF0DE
:100BA000E022116911F0010F02D011F4803FF6D05C
:100BB00000224FF0E0231A619A6170470C4A1278C4
:100BC00042434FF0E0235A6100229A6101221A61E8
:100BD00000BF4FF0E022116911F0010F02D011F4B3
:100BE000803FF6D000224FF0E0231A619A617047EF
:100BF0000C000020704700000FB4054A054910B5ED
:100C000003AB7944029800F0D8F810BC5DF814FBEF
:100C100008000020F9FAFFFF2DE9F04104460E46D6
:100C200000202BE0E1682046884748B3252802D001
:100C3000D4E901211FE0E16820460027884705002C
:100C40001ED0A5F14100192802D820354FF40067C5
:100C50003246294620462760FFF782FA40B1012834
:100C600001D1361DDEE7F61D26F007060836D9E766
:100C7000D4E9012128469047206A401C2062D1E730
:100C8000206ABDE8F08100002DE9F0418046002691
:100C900010687529414614A511D0AFF300800028D3
:100CA00002DA404211A508E0D8F800108A0701D501
:100CB0000FA502E0490704D50EA5012601E0AFF318
:100CC0000080002408F1240704E000F089F83031A6
:100CD0003955641C0028F8D133462A46214640463F
:100CE000BDE8F04100F00CB8000000002D0000004D
:100CF0002B000000200000007047704770477047CD
:100D00002DE9F0470D4604469246994600F1240825
:100D10000168880604D5E06921F01001216000E037
:100D200001200027A84200DD471BA1697A1902EBC8
:100D30000900081AA0612068C00602D42046AFF35B
:100D40000080002608E0D4E901211AF80600904747
:100D5000206A401C761C20624E45F4DB2068C006E9
:100D60000AD52046AFF3008006E0D4E90121302007
:100D70009047206A401C2062381EA7F10107F4DC6E
:100D800007E0D4E9012118F805009047206A401CCB
:100D90002062281EA5F10105F3DC2046AFF3008098
:100DA00021680220090600D40120BDE8F087000078
:100DB00001694A1C02610878704710B50C46194653
:100DC00090B0CDE9024200220692044A7A44CDE96D
:100DD000042001A8FFF720FF10B010BDE1FFFFFFC6
:100DE0004FF00A01B0FBF1F202FB1101104670470F
:100DF000754600F029F8AE4605006946534620F0D6
:100E00000700854618B020B5FFF7D0F9BDE82040AF
:100E10004FF000064FF000074FF000084FF0000BB6
:100E200021F00701AC46ACE8C009ACE8C009ACE869
:100E3000C009ACE8C0098D4670470446AFF3008096
:100E40002046FFF7A1F90000004870476409002020
:100E500090EA010F48BF81F0004100F17C82421A04
:100E60003CBF801A89184FEAD0524FF07F4C1CEAE1
:100E7000410FA2EBD15318BF9CEA026F00F04080F3
:100E80004FF0004C4CEA00204CEA012121FA03FC0F
:100E900010EB0C0C23D202F1FF325FEA1C2040EB76
:100EA000C25038BF70471CF07F0F4FEA400C18BF8C
:100EB000BCF17F4F38BF7047C3F12003994008BF92
:100EC00020F00100BCF17F4F38BF7047A0F1C04057
:100ED0004FF0FF0141EAD0514FEAC15070474FEA4D
:100EE0003C00000A40EBC25028BF1CF0FF0F4FEA45
:100EF000400CE1D018BFBCF17F4F38BF7047E5E729
:100F00009CEA026F05D010EA5C0F08BF00F00040B9
:100F10007047BCEB410F4FEA400228BF9445DFF811
:100F200028C0C0F01580AFF30080B2EB410F05D0B0
:100F300012F1807F08BF70470846704790EA010FA2
:100F400058BF704701487047010000040000C07F8F
:100F5000014800F0CEBA00000000C07F014800F058
:100F6000C8BA00000000C07F4FF47F0C1CEAD0120A
:100F70001EBF1CEAD11392EA0C0F93EA0C0F00F08B
:100F8000A58090EA010F48BF42F4807240F4000C43
:100F900041F400002CF07F4120F07F4000B58142F9
:100FA000A2EB03020FF2401CACEB504EC0F100006C
:100FB0009EF800E04FEA4E0E00FB0EFC38BF4900E1
:100FC0004FEA2C1C02F5FA020CFB0EF34FEACE1E80
:100FD0004FEA112C4FEAC1210EEB635E0EFB0CFCB5
:100FE0004FEA1C5300FB03114FEA112C4FEA013169
:100FF0000EFB0CFC02F4807E42EB22424FEADC4CFA
:1010000000FB0C11C14228BF09184CEB0333012926
:1010100024BF4EF0020E4EF0804E10EB410F24BF65
:101020004EF0010E4EF0804E08BF4EF0040E4EF012
:1010300008015DF804EB43EBC25018BFB2F57C0F1A
:1010400038BF704741EAC07108BF20F00100B2F517
:101050007C0F38BF704729D512F0F00F1CBF00F18C
:10106000C04000F0004070470081828384858687FD
:1010700088898B8C8D8E8F919293959697999A9C57
:101080009D9FA0A2A3A5A7A8AAACAEB0B2B3B5B7C6
:10109000B9BCBEC0C2C5C7C9CCCED1D4D7D9DCDF9C
:1010A000E2E6E9ECF0F3F7FAFE0000004FEA400C4C
:1010B0000CF1807CBCF17E4F28BF7047B0F1C0407E
:1010C0004FF07F404CBF40104008704790EA010F3E
:1010D0000CEAD11348BF42F48072624538BF6345C1
:1010E00007D213F47F0F23D080EA010000F0004004
:1010F00070474FF0807C1CEB400F98BF1CEB410FFA
:10110000DFF840C03FF624AFAFF300804FF0807CA3
:101110001CEB400F02BF1CEB410F0B4870471CEB50
:10112000410F0CBF002020F0004040EAC250704741
:1011300012F47F0F04BF0448704742F0FF004FEAEB
:10114000C0507047040000040000C07FC2154FEA81
:10115000002318BF43F0004305D4D2F19E020AD306
:1011600023FA02F070474FEA4001B1F1FE4F02D27C
:101170004FF000007047DFF828C04FEA4001B1F19E
:101180007F4F88BF4CF4803C3FF6E8AE1CBF6FEA4F
:10119000E0707047AFF300806FEAE07070470000C6
:1011A0006800020410F0004218BF404242F0804242
:1011B000B0FA80F18840A2EBC15202F1786208BF18
:1011C0007047410642EB202018BF5FF0806C28BFBB
:1011D00020F0010070474FF08042FFF7E9BF0000A8
:1011E0004FF47F0C1CEAD0121EBF1CEAD11392EA06
:1011F0000C0F93EA0C0F00F04A8090EA010F48BFF1
:1012000042F480724FF0004C4CEA00204CEA01217D
:101210001A44A0FB01C3A2F50002BCF1000F18BFE5
:1012200043F0010302F4807CB3F1004F38BF5B0050
:1012300042EB2242180A40EBC25028BF13F07F0F46
:1012400018BFB2F57C0F38BF704708BF20F001000F
:10125000B2F57C0F38BF70470BD582F0FF0212F554
:10126000803FC8BF704700F1C040D8BF00F00040C9
:10127000704700F5000C5FEA4C0C48BF7047B0F1B6
:10128000C0404FF07F404CBF40104008704790EA8C
:10129000010F0CEAD11348BF42F48072624538BF97
:1012A000634504D280EA010000F0004070474FF02F
:1012B000807C1CEB400F98BF1CEB410F4FF0030CE0
:1012C0004CF0806C3FF644AEAFF3008012F47F0F19
:1012D0001FBF13F47F0F42F0FF02D0057047014893
:1012E000704700000000C07F10B412F47F0F4FEA77
:1012F00000204FEA012110D1B0FA80F400FA04F086
:10130000A2EB044213F47F0F02F5803218BF41F0C4
:10131000004100D010BC18BF604740F00040B1FA57
:1013200081F401FA04F1A3EB044310BC03F580330C
:10133000604780F0004090EA010F7FF590AD81F0AA
:10134000004100F008B8000090EA010F48BF81F0AA
:1013500000413FF584AD421A3EBF82F00042801A40
:1013600089184FEAD0524FF07F4C1CEA410FA2EB94
:10137000D15318BF9CEA026F4FD04FF0004C4CEA9B
:1013800000204CEA012121FA03FCB0EB0C0C0FD435
:1013900012F0FE0F18BF5FEA4C001DD5001240EBA3
:1013A000C25038BF70471CF03F0F18BF70470BE0AA
:1013B000A2F101025FEA1C2040EBC25038BF704727
:1013C0001CF07F0F18BF7047C3F12003994014BF72
:1013D000401E20F0010070474FEA122316D0004251
:1013E00004BF002070474FEA9000B0FA80FCA2EBE7
:1013F0000C02CCF1280C60FA0CF093EA122F04BF17
:1014000000EBC25070474FEAC37070475FEADC10D0
:1014100008BF70474FEAC37070479CEA026F04D060
:1014200010EA5C0F08BF00207047BCEB410F4FEA89
:10143000400228BF9445DFF82CC0FFF489ADAFF31C
:101440000080B2EB410F06D012F1807F08BF7047D9
:1014500081F00040704790EA010F48BF7047024892
:1014600070470000020000040000C07F00F000434D
:1014700043EAD05323F48073C3F1C10323F0004146
:1014800017291FD8C3F1200310FA03F1C3F1200379
:1014900020F07F4040F4000020FA03F003F0004306
:1014A00040EA03000DD00B46590009D318BF401C79
:1014B00006D17FEAE27398BF401C38BF20F00100DC
:1014C00070477047182903EB912318BF6FF0004154
:1014D000013168BF03F0004009D6400203F000402C
:1014E00000F1010004BF12F0004F20F0010070472E
:1014F00070470CF00F03092B08BF082000F02B8069
:101500000A2B0BD0082B18BF704708BF1CF0400FE8
:101510000AD04FF000004FF0000170471CF0400F60
:1015200018BF4FF0004070471CF0100F08D020F09B
:10153000704300F07F4242EAD3014FEA43707047A4
:1015400000F0604021F07F4242EA000201F07F405B
:1015500040EA727070471CF4801F11D01CF4E02F19
:1015600003D06FEACC31490070474FF04050EFF3A1
:10157000008222F0704242EA000282F30088704743
:101580004FF0000070470000A81500080000002080
:101590001000000028010008B81500081000002005
:1015A000B80B00004401000801000000000000002A
:0815B000000000000000000033
:040000050800019559
:00000001FF
